{
  "contractName": "animalToken",
  "abi": [
    {
      "inputs": [],
      "payable": false,
      "stateMutability": "nonpayable",
      "type": "constructor"
    },
    {
      "anonymous": false,
      "inputs": [
        {
          "indexed": true,
          "internalType": "address",
          "name": "owner",
          "type": "address"
        },
        {
          "indexed": true,
          "internalType": "address",
          "name": "approved",
          "type": "address"
        },
        {
          "indexed": true,
          "internalType": "uint256",
          "name": "tokenId",
          "type": "uint256"
        }
      ],
      "name": "Approval",
      "type": "event"
    },
    {
      "anonymous": false,
      "inputs": [
        {
          "indexed": true,
          "internalType": "address",
          "name": "owner",
          "type": "address"
        },
        {
          "indexed": true,
          "internalType": "address",
          "name": "operator",
          "type": "address"
        },
        {
          "indexed": false,
          "internalType": "bool",
          "name": "approved",
          "type": "bool"
        }
      ],
      "name": "ApprovalForAll",
      "type": "event"
    },
    {
      "anonymous": false,
      "inputs": [
        {
          "indexed": true,
          "internalType": "address",
          "name": "account",
          "type": "address"
        }
      ],
      "name": "MinterAdded",
      "type": "event"
    },
    {
      "anonymous": false,
      "inputs": [
        {
          "indexed": true,
          "internalType": "address",
          "name": "account",
          "type": "address"
        }
      ],
      "name": "MinterRemoved",
      "type": "event"
    },
    {
      "anonymous": false,
      "inputs": [
        {
          "indexed": true,
          "internalType": "address",
          "name": "from",
          "type": "address"
        },
        {
          "indexed": true,
          "internalType": "address",
          "name": "to",
          "type": "address"
        },
        {
          "indexed": true,
          "internalType": "uint256",
          "name": "tokenId",
          "type": "uint256"
        }
      ],
      "name": "Transfer",
      "type": "event"
    },
    {
      "constant": false,
      "inputs": [
        {
          "internalType": "address",
          "name": "account",
          "type": "address"
        }
      ],
      "name": "addMinter",
      "outputs": [],
      "payable": false,
      "stateMutability": "nonpayable",
      "type": "function"
    },
    {
      "constant": false,
      "inputs": [
        {
          "internalType": "address",
          "name": "to",
          "type": "address"
        },
        {
          "internalType": "uint256",
          "name": "tokenId",
          "type": "uint256"
        }
      ],
      "name": "approve",
      "outputs": [],
      "payable": false,
      "stateMutability": "nonpayable",
      "type": "function"
    },
    {
      "constant": true,
      "inputs": [
        {
          "internalType": "address",
          "name": "owner",
          "type": "address"
        }
      ],
      "name": "balanceOf",
      "outputs": [
        {
          "internalType": "uint256",
          "name": "",
          "type": "uint256"
        }
      ],
      "payable": false,
      "stateMutability": "view",
      "type": "function"
    },
    {
      "constant": true,
      "inputs": [
        {
          "internalType": "uint256",
          "name": "tokenId",
          "type": "uint256"
        }
      ],
      "name": "getApproved",
      "outputs": [
        {
          "internalType": "address",
          "name": "",
          "type": "address"
        }
      ],
      "payable": false,
      "stateMutability": "view",
      "type": "function"
    },
    {
      "constant": true,
      "inputs": [
        {
          "internalType": "address",
          "name": "owner",
          "type": "address"
        },
        {
          "internalType": "address",
          "name": "operator",
          "type": "address"
        }
      ],
      "name": "isApprovedForAll",
      "outputs": [
        {
          "internalType": "bool",
          "name": "",
          "type": "bool"
        }
      ],
      "payable": false,
      "stateMutability": "view",
      "type": "function"
    },
    {
      "constant": true,
      "inputs": [
        {
          "internalType": "address",
          "name": "account",
          "type": "address"
        }
      ],
      "name": "isMinter",
      "outputs": [
        {
          "internalType": "bool",
          "name": "",
          "type": "bool"
        }
      ],
      "payable": false,
      "stateMutability": "view",
      "type": "function"
    },
    {
      "constant": true,
      "inputs": [],
      "name": "name",
      "outputs": [
        {
          "internalType": "string",
          "name": "",
          "type": "string"
        }
      ],
      "payable": false,
      "stateMutability": "view",
      "type": "function"
    },
    {
      "constant": true,
      "inputs": [
        {
          "internalType": "uint256",
          "name": "tokenId",
          "type": "uint256"
        }
      ],
      "name": "ownerOf",
      "outputs": [
        {
          "internalType": "address",
          "name": "",
          "type": "address"
        }
      ],
      "payable": false,
      "stateMutability": "view",
      "type": "function"
    },
    {
      "constant": false,
      "inputs": [],
      "name": "renounceMinter",
      "outputs": [],
      "payable": false,
      "stateMutability": "nonpayable",
      "type": "function"
    },
    {
      "constant": false,
      "inputs": [
        {
          "internalType": "address",
          "name": "from",
          "type": "address"
        },
        {
          "internalType": "address",
          "name": "to",
          "type": "address"
        },
        {
          "internalType": "uint256",
          "name": "tokenId",
          "type": "uint256"
        }
      ],
      "name": "safeTransferFrom",
      "outputs": [],
      "payable": false,
      "stateMutability": "nonpayable",
      "type": "function"
    },
    {
      "constant": false,
      "inputs": [
        {
          "internalType": "address",
          "name": "from",
          "type": "address"
        },
        {
          "internalType": "address",
          "name": "to",
          "type": "address"
        },
        {
          "internalType": "uint256",
          "name": "tokenId",
          "type": "uint256"
        },
        {
          "internalType": "bytes",
          "name": "_data",
          "type": "bytes"
        }
      ],
      "name": "safeTransferFrom",
      "outputs": [],
      "payable": false,
      "stateMutability": "nonpayable",
      "type": "function"
    },
    {
      "constant": false,
      "inputs": [
        {
          "internalType": "address",
          "name": "to",
          "type": "address"
        },
        {
          "internalType": "bool",
          "name": "approved",
          "type": "bool"
        }
      ],
      "name": "setApprovalForAll",
      "outputs": [],
      "payable": false,
      "stateMutability": "nonpayable",
      "type": "function"
    },
    {
      "constant": true,
      "inputs": [
        {
          "internalType": "bytes4",
          "name": "interfaceId",
          "type": "bytes4"
        }
      ],
      "name": "supportsInterface",
      "outputs": [
        {
          "internalType": "bool",
          "name": "",
          "type": "bool"
        }
      ],
      "payable": false,
      "stateMutability": "view",
      "type": "function"
    },
    {
      "constant": true,
      "inputs": [],
      "name": "symbol",
      "outputs": [
        {
          "internalType": "string",
          "name": "",
          "type": "string"
        }
      ],
      "payable": false,
      "stateMutability": "view",
      "type": "function"
    },
    {
      "constant": true,
      "inputs": [
        {
          "internalType": "uint256",
          "name": "index",
          "type": "uint256"
        }
      ],
      "name": "tokenByIndex",
      "outputs": [
        {
          "internalType": "uint256",
          "name": "",
          "type": "uint256"
        }
      ],
      "payable": false,
      "stateMutability": "view",
      "type": "function"
    },
    {
      "constant": true,
      "inputs": [
        {
          "internalType": "address",
          "name": "owner",
          "type": "address"
        },
        {
          "internalType": "uint256",
          "name": "index",
          "type": "uint256"
        }
      ],
      "name": "tokenOfOwnerByIndex",
      "outputs": [
        {
          "internalType": "uint256",
          "name": "",
          "type": "uint256"
        }
      ],
      "payable": false,
      "stateMutability": "view",
      "type": "function"
    },
    {
      "constant": true,
      "inputs": [
        {
          "internalType": "uint256",
          "name": "tokenId",
          "type": "uint256"
        }
      ],
      "name": "tokenURI",
      "outputs": [
        {
          "internalType": "string",
          "name": "",
          "type": "string"
        }
      ],
      "payable": false,
      "stateMutability": "view",
      "type": "function"
    },
    {
      "constant": true,
      "inputs": [],
      "name": "totalSupply",
      "outputs": [
        {
          "internalType": "uint256",
          "name": "",
          "type": "uint256"
        }
      ],
      "payable": false,
      "stateMutability": "view",
      "type": "function"
    },
    {
      "constant": false,
      "inputs": [
        {
          "internalType": "address",
          "name": "from",
          "type": "address"
        },
        {
          "internalType": "address",
          "name": "to",
          "type": "address"
        },
        {
          "internalType": "uint256",
          "name": "tokenId",
          "type": "uint256"
        }
      ],
      "name": "transferFrom",
      "outputs": [],
      "payable": false,
      "stateMutability": "nonpayable",
      "type": "function"
    },
    {
      "constant": false,
      "inputs": [
        {
          "internalType": "address",
          "name": "to",
          "type": "address"
        },
        {
          "internalType": "uint256",
          "name": "tokenId",
          "type": "uint256"
        }
      ],
      "name": "mint",
      "outputs": [
        {
          "internalType": "bool",
          "name": "",
          "type": "bool"
        }
      ],
      "payable": false,
      "stateMutability": "nonpayable",
      "type": "function"
    },
    {
      "constant": false,
      "inputs": [
        {
          "internalType": "uint256",
          "name": "caravana",
          "type": "uint256"
        },
        {
          "internalType": "uint256",
          "name": "newWeight",
          "type": "uint256"
        }
      ],
      "name": "updateAnimalWeight",
      "outputs": [],
      "payable": true,
      "stateMutability": "payable",
      "type": "function"
    },
    {
      "constant": false,
      "inputs": [
        {
          "internalType": "uint256",
          "name": "caravana",
          "type": "uint256"
        }
      ],
      "name": "slaughter",
      "outputs": [],
      "payable": true,
      "stateMutability": "payable",
      "type": "function"
    }
  ],
  "bytecode": "0x60806040523480156200001157600080fd5b506040518060400160405280600681526020017f416e696d616c00000000000000000000000000000000000000000000000000008152506040518060400160405280600381526020017f414e4900000000000000000000000000000000000000000000000000000000008152508181620000986301ffc9a760e01b6200012d60201b60201c565b620000b06380ac58cd60e01b6200012d60201b60201c565b620000c863780e9d6360e01b6200012d60201b60201c565b8160099080519060200190620000e09291906200045b565b5080600a9080519060200190620000f99291906200045b565b5062000112635b5e139f60e01b6200012d60201b60201c565b5050505062000127336200023660201b60201c565b6200050a565b63ffffffff60e01b817bffffffffffffffffffffffffffffffffffffffffffffffffffffffff19161415620001ca576040517f08c379a000000000000000000000000000000000000000000000000000000000815260040180806020018281038252601c8152602001807f4552433136353a20696e76616c696420696e746572666163652069640000000081525060200191505060405180910390fd5b6001600080837bffffffffffffffffffffffffffffffffffffffffffffffffffffffff19167bffffffffffffffffffffffffffffffffffffffffffffffffffffffff1916815260200190815260200160002060006101000a81548160ff02191690831515021790555050565b6200025181600c6200029760201b62002ae31790919060201c565b8073ffffffffffffffffffffffffffffffffffffffff167f6ae172837ea30b801fbfcdd4108aa1d5bf8ff775444fd70256b44e6bf3dfc3f660405160405180910390a250565b620002a982826200037b60201b60201c565b156200031d576040517f08c379a000000000000000000000000000000000000000000000000000000000815260040180806020018281038252601f8152602001807f526f6c65733a206163636f756e7420616c72656164792068617320726f6c650081525060200191505060405180910390fd5b60018260000160008373ffffffffffffffffffffffffffffffffffffffff1673ffffffffffffffffffffffffffffffffffffffff16815260200190815260200160002060006101000a81548160ff0219169083151502179055505050565b60008073ffffffffffffffffffffffffffffffffffffffff168273ffffffffffffffffffffffffffffffffffffffff16141562000404576040517f08c379a00000000000000000000000000000000000000000000000000000000081526004018080602001828103825260228152602001806200372d6022913960400191505060405180910390fd5b8260000160008373ffffffffffffffffffffffffffffffffffffffff1673ffffffffffffffffffffffffffffffffffffffff16815260200190815260200160002060009054906101000a900460ff16905092915050565b828054600181600116156101000203166002900490600052602060002090601f016020900481019282601f106200049e57805160ff1916838001178555620004cf565b82800160010185558215620004cf579182015b82811115620004ce578251825591602001919060010190620004b1565b5b509050620004de9190620004e2565b5090565b6200050791905b8082111562000503576000816000905550600101620004e9565b5090565b90565b613213806200051a6000396000f3fe6080604052600436106101355760003560e01c806370a08231116100ab578063aa271e1a1161006f578063aa271e1a14610799578063b88d4fde14610802578063c170190a14610914578063c87b56dd14610942578063e797b125146109f6578063e985e9c514610a2e57610135565b806370a08231146105df57806395d89b4114610644578063983b2d56146106d45780639865027514610725578063a22cb4651461073c57610135565b806323b872dd116100fd57806323b872dd1461033d5780632f745c59146103b857806340c10f191461042757806342842e0e1461049a5780634f6ccce7146105155780636352211e1461056457610135565b806301ffc9a71461013a57806306fdde03146101ac578063081812fc1461023c578063095ea7b3146102b757806318160ddd14610312575b600080fd5b34801561014657600080fd5b506101926004803603602081101561015d57600080fd5b8101908080357bffffffffffffffffffffffffffffffffffffffffffffffffffffffff19169060200190929190505050610ab7565b604051808215151515815260200191505060405180910390f35b3480156101b857600080fd5b506101c1610b1e565b6040518080602001828103825283818151815260200191508051906020019080838360005b838110156102015780820151818401526020810190506101e6565b50505050905090810190601f16801561022e5780820380516001836020036101000a031916815260200191505b509250505060405180910390f35b34801561024857600080fd5b506102756004803603602081101561025f57600080fd5b8101908080359060200190929190505050610bc0565b604051808273ffffffffffffffffffffffffffffffffffffffff1673ffffffffffffffffffffffffffffffffffffffff16815260200191505060405180910390f35b3480156102c357600080fd5b50610310600480360360408110156102da57600080fd5b81019080803573ffffffffffffffffffffffffffffffffffffffff16906020019092919080359060200190929190505050610c5b565b005b34801561031e57600080fd5b50610327610e34565b6040518082815260200191505060405180910390f35b34801561034957600080fd5b506103b66004803603606081101561036057600080fd5b81019080803573ffffffffffffffffffffffffffffffffffffffff169060200190929190803573ffffffffffffffffffffffffffffffffffffffff16906020019092919080359060200190929190505050610e41565b005b3480156103c457600080fd5b50610411600480360360408110156103db57600080fd5b81019080803573ffffffffffffffffffffffffffffffffffffffff16906020019092919080359060200190929190505050610eb0565b6040518082815260200191505060405180910390f35b34801561043357600080fd5b506104806004803603604081101561044a57600080fd5b81019080803573ffffffffffffffffffffffffffffffffffffffff16906020019092919080359060200190929190505050610f6f565b604051808215151515815260200191505060405180910390f35b3480156104a657600080fd5b50610513600480360360608110156104bd57600080fd5b81019080803573ffffffffffffffffffffffffffffffffffffffff169060200190929190803573ffffffffffffffffffffffffffffffffffffffff16906020019092919080359060200190929190505050610fe3565b005b34801561052157600080fd5b5061054e6004803603602081101561053857600080fd5b8101908080359060200190929190505050611003565b6040518082815260200191505060405180910390f35b34801561057057600080fd5b5061059d6004803603602081101561058757600080fd5b8101908080359060200190929190505050611083565b604051808273ffffffffffffffffffffffffffffffffffffffff1673ffffffffffffffffffffffffffffffffffffffff16815260200191505060405180910390f35b3480156105eb57600080fd5b5061062e6004803603602081101561060257600080fd5b81019080803573ffffffffffffffffffffffffffffffffffffffff16906020019092919050505061114b565b6040518082815260200191505060405180910390f35b34801561065057600080fd5b50610659611220565b6040518080602001828103825283818151815260200191508051906020019080838360005b8381101561069957808201518184015260208101905061067e565b50505050905090810190601f1680156106c65780820380516001836020036101000a031916815260200191505b509250505060405180910390f35b3480156106e057600080fd5b50610723600480360360208110156106f757600080fd5b81019080803573ffffffffffffffffffffffffffffffffffffffff1690602001909291905050506112c2565b005b34801561073157600080fd5b5061073a61132c565b005b34801561074857600080fd5b506107976004803603604081101561075f57600080fd5b81019080803573ffffffffffffffffffffffffffffffffffffffff169060200190929190803515159060200190929190505050611337565b005b3480156107a557600080fd5b506107e8600480360360208110156107bc57600080fd5b81019080803573ffffffffffffffffffffffffffffffffffffffff1690602001909291905050506114da565b604051808215151515815260200191505060405180910390f35b34801561080e57600080fd5b506109126004803603608081101561082557600080fd5b81019080803573ffffffffffffffffffffffffffffffffffffffff169060200190929190803573ffffffffffffffffffffffffffffffffffffffff169060200190929190803590602001909291908035906020019064010000000081111561088c57600080fd5b82018360208201111561089e57600080fd5b803590602001918460018302840111640100000000831117156108c057600080fd5b91908080601f016020809104026020016040519081016040528093929190818152602001838380828437600081840152601f19601f8201169050808301925050505050505091929192905050506114f7565b005b6109406004803603602081101561092a57600080fd5b8101908080359060200190929190505050611569565b005b34801561094e57600080fd5b5061097b6004803603602081101561096557600080fd5b81019080803590602001909291905050506117e3565b6040518080602001828103825283818151815260200191508051906020019080838360005b838110156109bb5780820151818401526020810190506109a0565b50505050905090810190601f1680156109e85780820380516001836020036101000a031916815260200191505b509250505060405180910390f35b610a2c60048036036040811015610a0c57600080fd5b8101908080359060200190929190803590602001909291905050506118f6565b005b348015610a3a57600080fd5b50610a9d60048036036040811015610a5157600080fd5b81019080803573ffffffffffffffffffffffffffffffffffffffff169060200190929190803573ffffffffffffffffffffffffffffffffffffffff169060200190929190505050611c02565b604051808215151515815260200191505060405180910390f35b6000806000837bffffffffffffffffffffffffffffffffffffffffffffffffffffffff19167bffffffffffffffffffffffffffffffffffffffffffffffffffffffff1916815260200190815260200160002060009054906101000a900460ff169050919050565b606060098054600181600116156101000203166002900480601f016020809104026020016040519081016040528092919081815260200182805460018160011615610100020316600290048015610bb65780601f10610b8b57610100808354040283529160200191610bb6565b820191906000526020600020905b815481529060010190602001808311610b9957829003601f168201915b5050505050905090565b6000610bcb82611c96565b610c20576040517f08c379a000000000000000000000000000000000000000000000000000000000815260040180806020018281038252602c8152602001806130bb602c913960400191505060405180910390fd5b6002600083815260200190815260200160002060009054906101000a900473ffffffffffffffffffffffffffffffffffffffff169050919050565b6000610c6682611083565b90508073ffffffffffffffffffffffffffffffffffffffff168373ffffffffffffffffffffffffffffffffffffffff161415610ced576040517f08c379a00000000000000000000000000000000000000000000000000000000081526004018080602001828103825260218152602001806131616021913960400191505060405180910390fd5b8073ffffffffffffffffffffffffffffffffffffffff163373ffffffffffffffffffffffffffffffffffffffff161480610d2d5750610d2c8133611c02565b5b610d82576040517f08c379a0000000000000000000000000000000000000000000000000000000008152600401808060200182810382526038815260200180612fdf6038913960400191505060405180910390fd5b826002600084815260200190815260200160002060006101000a81548173ffffffffffffffffffffffffffffffffffffffff021916908373ffffffffffffffffffffffffffffffffffffffff160217905550818373ffffffffffffffffffffffffffffffffffffffff168273ffffffffffffffffffffffffffffffffffffffff167f8c5be1e5ebec7d5bd14f71427d1e84f3dd0314c0f7b2291e5b200ac8c7c3b92560405160405180910390a4505050565b6000600780549050905090565b610e4b3382611d08565b610ea0576040517f08c379a00000000000000000000000000000000000000000000000000000000081526004018080602001828103825260318152602001806131826031913960400191505060405180910390fd5b610eab838383611dfc565b505050565b6000610ebb8361114b565b8210610f12576040517f08c379a000000000000000000000000000000000000000000000000000000000815260040180806020018281038252602b815260200180612ee0602b913960400191505060405180910390fd5b600560008473ffffffffffffffffffffffffffffffffffffffff1673ffffffffffffffffffffffffffffffffffffffff1681526020019081526020016000208281548110610f5c57fe5b9060005260206000200154905092915050565b6000610f7a336114da565b610fcf576040517f08c379a000000000000000000000000000000000000000000000000000000000815260040180806020018281038252603081526020018061306a6030913960400191505060405180910390fd5b610fd98383611e20565b6001905092915050565b610ffe838383604051806020016040528060008152506114f7565b505050565b600061100d610e34565b8210611064576040517f08c379a000000000000000000000000000000000000000000000000000000000815260040180806020018281038252602c8152602001806131b3602c913960400191505060405180910390fd5b6007828154811061107157fe5b90600052602060002001549050919050565b6000806001600084815260200190815260200160002060009054906101000a900473ffffffffffffffffffffffffffffffffffffffff169050600073ffffffffffffffffffffffffffffffffffffffff168173ffffffffffffffffffffffffffffffffffffffff161415611142576040517f08c379a00000000000000000000000000000000000000000000000000000000081526004018080602001828103825260298152602001806130416029913960400191505060405180910390fd5b80915050919050565b60008073ffffffffffffffffffffffffffffffffffffffff168273ffffffffffffffffffffffffffffffffffffffff1614156111d2576040517f08c379a000000000000000000000000000000000000000000000000000000000815260040180806020018281038252602a815260200180613017602a913960400191505060405180910390fd5b611219600360008473ffffffffffffffffffffffffffffffffffffffff1673ffffffffffffffffffffffffffffffffffffffff168152602001908152602001600020611e41565b9050919050565b6060600a8054600181600116156101000203166002900480601f0160208091040260200160405190810160405280929190818152602001828054600181600116156101000203166002900480156112b85780601f1061128d576101008083540402835291602001916112b8565b820191906000526020600020905b81548152906001019060200180831161129b57829003601f168201915b5050505050905090565b6112cb336114da565b611320576040517f08c379a000000000000000000000000000000000000000000000000000000000815260040180806020018281038252603081526020018061306a6030913960400191505060405180910390fd5b61132981611e4f565b50565b61133533611ea9565b565b3373ffffffffffffffffffffffffffffffffffffffff168273ffffffffffffffffffffffffffffffffffffffff1614156113d9576040517f08c379a00000000000000000000000000000000000000000000000000000000081526004018080602001828103825260198152602001807f4552433732313a20617070726f766520746f2063616c6c65720000000000000081525060200191505060405180910390fd5b80600460003373ffffffffffffffffffffffffffffffffffffffff1673ffffffffffffffffffffffffffffffffffffffff16815260200190815260200160002060008473ffffffffffffffffffffffffffffffffffffffff1673ffffffffffffffffffffffffffffffffffffffff16815260200190815260200160002060006101000a81548160ff0219169083151502179055508173ffffffffffffffffffffffffffffffffffffffff163373ffffffffffffffffffffffffffffffffffffffff167f17307eab39ab6107e8899845ad3d59bd9653f200f220920489ca2b5937696c3183604051808215151515815260200191505060405180910390a35050565b60006114f082600c611f0390919063ffffffff16565b9050919050565b611502848484610e41565b61150e84848484611fe1565b611563576040517f08c379a0000000000000000000000000000000000000000000000000000000008152600401808060200182810382526032815260200180612f0b6032913960400191505060405180910390fd5b50505050565b600d600082815260200190815260200160002060040160019054906101000a900460ff166115ff576040517f08c379a000000000000000000000000000000000000000000000000000000000815260040180806020018281038252601b8152602001807f5468617420616e696d616c20646f6573206e6f742065786973742e000000000081525060200191505060405180910390fd5b6000611620600d600084815260200190815260200160002060060154611083565b90508073ffffffffffffffffffffffffffffffffffffffff163373ffffffffffffffffffffffffffffffffffffffff16148061166257506116618133611c02565b5b6116b7576040517f08c379a0000000000000000000000000000000000000000000000000000000008152600401808060200182810382526031815260200180612f3d6031913960400191505060405180910390fd5b60606116c2836121ca565b905060606117056040518060400160405280600681526020017f416e696d616c0000000000000000000000000000000000000000000000000000815250836122f7565b9050606061172b82604051806060016040528060218152602001612f92602191396122f7565b9050600d600086815260200190815260200160002060050160405180604001604052808381526020014281525090806001815401808255809150509060018203906000526020600020906002020160009091929091909150600082015181600001908051906020019061179f929190612e0e565b50602082015181600101555050506000600d600087815260200190815260200160002060040160016101000a81548160ff0219169083151502179055505050505050565b60606117ee82611c96565b611843576040517f08c379a000000000000000000000000000000000000000000000000000000000815260040180806020018281038252602f815260200180613132602f913960400191505060405180910390fd5b600b60008381526020019081526020016000208054600181600116156101000203166002900480601f0160208091040260200160405190810160405280929190818152602001828054600181600116156101000203166002900480156118ea5780601f106118bf576101008083540402835291602001916118ea565b820191906000526020600020905b8154815290600101906020018083116118cd57829003601f168201915b50505050509050919050565b600d600083815260200190815260200160002060040160019054906101000a900460ff1661198c576040517f08c379a000000000000000000000000000000000000000000000000000000000815260040180806020018281038252601b8152602001807f5468617420616e696d616c20646f6573206e6f742065786973742e000000000081525060200191505060405180910390fd5b60006119ad600d600085815260200190815260200160002060060154611083565b90508073ffffffffffffffffffffffffffffffffffffffff163373ffffffffffffffffffffffffffffffffffffffff1614806119ef57506119ee8133611c02565b5b611a44576040517f08c379a0000000000000000000000000000000000000000000000000000000008152600401808060200182810382526031815260200180612f3d6031913960400191505060405180910390fd5b6060611a4f846121ca565b90506060611a92826040518060400160405280601381526020017f776569676874206368616e6765642066726f6d000000000000000000000000008152506122f7565b90506060611abe82611ab9600d60008a8152602001908152602001600020600201546121ca565b6122f7565b90506060611b01826040518060400160405280600581526020017f6b6720746f0000000000000000000000000000000000000000000000000000008152506122f7565b90506060611b1782611b12896121ca565b6122f7565b90506060611b5a826040518060400160405280600381526020017f6b672e00000000000000000000000000000000000000000000000000000000008152506122f7565b9050600d60008a8152602001908152602001600020600501604051806040016040528083815260200142815250908060018154018082558091505090600182039060005260206000209060020201600090919290919091506000820151816000019080519060200190611bce929190612e0e565b506020820151816001015550505087600d60008b815260200190815260200160002060020181905550505050505050505050565b6000600460008473ffffffffffffffffffffffffffffffffffffffff1673ffffffffffffffffffffffffffffffffffffffff16815260200190815260200160002060008373ffffffffffffffffffffffffffffffffffffffff1673ffffffffffffffffffffffffffffffffffffffff16815260200190815260200160002060009054906101000a900460ff16905092915050565b6000806001600084815260200190815260200160002060009054906101000a900473ffffffffffffffffffffffffffffffffffffffff169050600073ffffffffffffffffffffffffffffffffffffffff168173ffffffffffffffffffffffffffffffffffffffff161415915050919050565b6000611d1382611c96565b611d68576040517f08c379a000000000000000000000000000000000000000000000000000000000815260040180806020018281038252602c815260200180612fb3602c913960400191505060405180910390fd5b6000611d7383611083565b90508073ffffffffffffffffffffffffffffffffffffffff168473ffffffffffffffffffffffffffffffffffffffff161480611de257508373ffffffffffffffffffffffffffffffffffffffff16611dca84610bc0565b73ffffffffffffffffffffffffffffffffffffffff16145b80611df35750611df28185611c02565b5b91505092915050565b611e078383836123bf565b611e11838261261a565b611e1b82826127b8565b505050565b611e2a828261287f565b611e3482826127b8565b611e3d81612a97565b5050565b600081600001549050919050565b611e6381600c612ae390919063ffffffff16565b8073ffffffffffffffffffffffffffffffffffffffff167f6ae172837ea30b801fbfcdd4108aa1d5bf8ff775444fd70256b44e6bf3dfc3f660405160405180910390a250565b611ebd81600c612bbe90919063ffffffff16565b8073ffffffffffffffffffffffffffffffffffffffff167fe94479a9f7e1952cc78f2d6baab678adc1b772d936c6583def489e524cb6669260405160405180910390a250565b60008073ffffffffffffffffffffffffffffffffffffffff168273ffffffffffffffffffffffffffffffffffffffff161415611f8a576040517f08c379a00000000000000000000000000000000000000000000000000000000081526004018080602001828103825260228152602001806130e76022913960400191505060405180910390fd5b8260000160008373ffffffffffffffffffffffffffffffffffffffff1673ffffffffffffffffffffffffffffffffffffffff16815260200190815260200160002060009054906101000a900460ff16905092915050565b60006120028473ffffffffffffffffffffffffffffffffffffffff16612c7b565b61200f57600190506121c2565b60008473ffffffffffffffffffffffffffffffffffffffff1663150b7a02338887876040518563ffffffff1660e01b8152600401808573ffffffffffffffffffffffffffffffffffffffff1673ffffffffffffffffffffffffffffffffffffffff1681526020018473ffffffffffffffffffffffffffffffffffffffff1673ffffffffffffffffffffffffffffffffffffffff16815260200183815260200180602001828103825283818151815260200191508051906020019080838360005b838110156120ea5780820151818401526020810190506120cf565b50505050905090810190601f1680156121175780820380516001836020036101000a031916815260200191505b5095505050505050602060405180830381600087803b15801561213957600080fd5b505af115801561214d573d6000803e3d6000fd5b505050506040513d602081101561216357600080fd5b8101908080519060200190929190505050905063150b7a0260e01b7bffffffffffffffffffffffffffffffffffffffffffffffffffffffff1916817bffffffffffffffffffffffffffffffffffffffffffffffffffffffff1916149150505b949350505050565b60606000821415612212576040518060400160405280600181526020017f300000000000000000000000000000000000000000000000000000000000000081525090506122f2565b600082905060005b6000821461223c578080600101915050600a828161223457fe5b04915061221a565b6060816040519080825280601f01601f1916602001820160405280156122715781602001600182028038833980820191505090505b50905060006001830390505b600086146122ea57600a868161228f57fe5b0660300160f81b828280600190039350815181106122a957fe5b60200101907effffffffffffffffffffffffffffffffffffffffffffffffffffffffffffff1916908160001a905350600a86816122e257fe5b04955061227d565b819450505050505b919050565b606082826040516020018083805190602001908083835b60208310612331578051825260208201915060208101905060208303925061230e565b6001836020036101000a03801982511681845116808217855250505050505090500182805190602001908083835b60208310612382578051825260208201915060208101905060208303925061235f565b6001836020036101000a03801982511681845116808217855250505050505090500192505050604051602081830303815290604052905092915050565b8273ffffffffffffffffffffffffffffffffffffffff166123df82611083565b73ffffffffffffffffffffffffffffffffffffffff161461244b576040517f08c379a00000000000000000000000000000000000000000000000000000000081526004018080602001828103825260298152602001806131096029913960400191505060405180910390fd5b600073ffffffffffffffffffffffffffffffffffffffff168273ffffffffffffffffffffffffffffffffffffffff1614156124d1576040517f08c379a0000000000000000000000000000000000000000000000000000000008152600401808060200182810382526024815260200180612f6e6024913960400191505060405180910390fd5b6124da81612c8e565b612521600360008573ffffffffffffffffffffffffffffffffffffffff1673ffffffffffffffffffffffffffffffffffffffff168152602001908152602001600020612d4c565b612568600360008473ffffffffffffffffffffffffffffffffffffffff1673ffffffffffffffffffffffffffffffffffffffff168152602001908152602001600020612d6f565b816001600083815260200190815260200160002060006101000a81548173ffffffffffffffffffffffffffffffffffffffff021916908373ffffffffffffffffffffffffffffffffffffffff160217905550808273ffffffffffffffffffffffffffffffffffffffff168473ffffffffffffffffffffffffffffffffffffffff167fddf252ad1be2c89b69c2b068fc378daa952ba7f163c4a11628f55a4df523b3ef60405160405180910390a4505050565b60006126726001600560008673ffffffffffffffffffffffffffffffffffffffff1673ffffffffffffffffffffffffffffffffffffffff16815260200190815260200160002080549050612d8590919063ffffffff16565b905060006006600084815260200190815260200160002054905081811461275f576000600560008673ffffffffffffffffffffffffffffffffffffffff1673ffffffffffffffffffffffffffffffffffffffff16815260200190815260200160002083815481106126df57fe5b9060005260206000200154905080600560008773ffffffffffffffffffffffffffffffffffffffff1673ffffffffffffffffffffffffffffffffffffffff168152602001908152602001600020838154811061273757fe5b9060005260206000200181905550816006600083815260200190815260200160002081905550505b600560008573ffffffffffffffffffffffffffffffffffffffff1673ffffffffffffffffffffffffffffffffffffffff1681526020019081526020016000208054809190600190036127b19190612e8e565b5050505050565b600560008373ffffffffffffffffffffffffffffffffffffffff1673ffffffffffffffffffffffffffffffffffffffff168152602001908152602001600020805490506006600083815260200190815260200160002081905550600560008373ffffffffffffffffffffffffffffffffffffffff1673ffffffffffffffffffffffffffffffffffffffff1681526020019081526020016000208190806001815401808255809150509060018203906000526020600020016000909192909190915055505050565b600073ffffffffffffffffffffffffffffffffffffffff168273ffffffffffffffffffffffffffffffffffffffff161415612922576040517f08c379a00000000000000000000000000000000000000000000000000000000081526004018080602001828103825260208152602001807f4552433732313a206d696e7420746f20746865207a65726f206164647265737381525060200191505060405180910390fd5b61292b81611c96565b1561299e576040517f08c379a000000000000000000000000000000000000000000000000000000000815260040180806020018281038252601c8152602001807f4552433732313a20746f6b656e20616c7265616479206d696e7465640000000081525060200191505060405180910390fd5b816001600083815260200190815260200160002060006101000a81548173ffffffffffffffffffffffffffffffffffffffff021916908373ffffffffffffffffffffffffffffffffffffffff160217905550612a37600360008473ffffffffffffffffffffffffffffffffffffffff1673ffffffffffffffffffffffffffffffffffffffff168152602001908152602001600020612d6f565b808273ffffffffffffffffffffffffffffffffffffffff16600073ffffffffffffffffffffffffffffffffffffffff167fddf252ad1be2c89b69c2b068fc378daa952ba7f163c4a11628f55a4df523b3ef60405160405180910390a45050565b6007805490506008600083815260200190815260200160002081905550600781908060018154018082558091505090600182039060005260206000200160009091929091909150555050565b612aed8282611f03565b15612b60576040517f08c379a000000000000000000000000000000000000000000000000000000000815260040180806020018281038252601f8152602001807f526f6c65733a206163636f756e7420616c72656164792068617320726f6c650081525060200191505060405180910390fd5b60018260000160008373ffffffffffffffffffffffffffffffffffffffff1673ffffffffffffffffffffffffffffffffffffffff16815260200190815260200160002060006101000a81548160ff0219169083151502179055505050565b612bc88282611f03565b612c1d576040517f08c379a000000000000000000000000000000000000000000000000000000000815260040180806020018281038252602181526020018061309a6021913960400191505060405180910390fd5b60008260000160008373ffffffffffffffffffffffffffffffffffffffff1673ffffffffffffffffffffffffffffffffffffffff16815260200190815260200160002060006101000a81548160ff0219169083151502179055505050565b600080823b905060008111915050919050565b600073ffffffffffffffffffffffffffffffffffffffff166002600083815260200190815260200160002060009054906101000a900473ffffffffffffffffffffffffffffffffffffffff1673ffffffffffffffffffffffffffffffffffffffff1614612d495760006002600083815260200190815260200160002060006101000a81548173ffffffffffffffffffffffffffffffffffffffff021916908373ffffffffffffffffffffffffffffffffffffffff1602179055505b50565b612d6460018260000154612d8590919063ffffffff16565b816000018190555050565b6001816000016000828254019250508190555050565b600082821115612dfd576040517f08c379a000000000000000000000000000000000000000000000000000000000815260040180806020018281038252601e8152602001807f536166654d6174683a207375627472616374696f6e206f766572666c6f77000081525060200191505060405180910390fd5b600082840390508091505092915050565b828054600181600116156101000203166002900490600052602060002090601f016020900481019282601f10612e4f57805160ff1916838001178555612e7d565b82800160010185558215612e7d579182015b82811115612e7c578251825591602001919060010190612e61565b5b509050612e8a9190612eba565b5090565b815481835581811115612eb557818360005260206000209182019101612eb49190612eba565b5b505050565b612edc91905b80821115612ed8576000816000905550600101612ec0565b5090565b9056fe455243373231456e756d657261626c653a206f776e657220696e646578206f7574206f6620626f756e64734552433732313a207472616e7366657220746f206e6f6e20455243373231526563656976657220696d706c656d656e7465724552433732313a20617070726f76652063616c6c6572206973206e6f74206f776e6572206e6f7220617070726f7665642e4552433732313a207472616e7366657220746f20746865207a65726f2061646472657373686173206265656e20736c617567687465726564206f722068617320646965642e4552433732313a206f70657261746f7220717565727920666f72206e6f6e6578697374656e7420746f6b656e4552433732313a20617070726f76652063616c6c6572206973206e6f74206f776e6572206e6f7220617070726f76656420666f7220616c6c4552433732313a2062616c616e636520717565727920666f7220746865207a65726f20616464726573734552433732313a206f776e657220717565727920666f72206e6f6e6578697374656e7420746f6b656e4d696e746572526f6c653a2063616c6c657220646f6573206e6f74206861766520746865204d696e74657220726f6c65526f6c65733a206163636f756e7420646f6573206e6f74206861766520726f6c654552433732313a20617070726f76656420717565727920666f72206e6f6e6578697374656e7420746f6b656e526f6c65733a206163636f756e7420697320746865207a65726f20616464726573734552433732313a207472616e73666572206f6620746f6b656e2074686174206973206e6f74206f776e4552433732314d657461646174613a2055524920717565727920666f72206e6f6e6578697374656e7420746f6b656e4552433732313a20617070726f76616c20746f2063757272656e74206f776e65724552433732313a207472616e736665722063616c6c6572206973206e6f74206f776e6572206e6f7220617070726f766564455243373231456e756d657261626c653a20676c6f62616c20696e646578206f7574206f6620626f756e6473a265627a7a723158207efbaf6c34505c8fdc2f262db4a28c914ae8018f2e1e5f7e7acb4e404e4ec5a564736f6c63430005110032526f6c65733a206163636f756e7420697320746865207a65726f2061646472657373",
  "source": "// SPDX-License-Identifier: MIT\r\npragma solidity >=0.4.0 <0.8.0;\r\n\r\nimport \"@openzeppelin/contracts/token/ERC721/ERC721Full.sol\";\r\nimport \"@openzeppelin/contracts/token/ERC721/ERC721.sol\";\r\nimport \"@openzeppelin/contracts/token/ERC721/ERC721Mintable.sol\";\r\n\r\n\r\ncontract animalToken is ERC721, ERC721Full, ERC721Mintable {\r\n    constructor() ERC721Full(\"Animal\", \"ANI\") public{}\r\n    struct myEvent{\r\n        string description;\r\n        uint timestamp;\r\n    }\r\n\r\n    struct Animal {\r\n        uint caravana;\r\n        string breed;\r\n        uint weight;\r\n        uint dateOfBirth;\r\n        bool male;\r\n        bool exists;\r\n        myEvent[] events;\r\n        uint tokenID;\r\n    }\r\n    // Asociamos la caravana al animal que la tiene, como la caravana se reusa despus de la faena,\r\n    // el animal asociado se reescribir.\r\n    mapping(uint => Animal) animalsCaravana;\r\n\r\n    //Cada animal nuevo se pushea al array, para as obtener un id nico para cada animal con el length del array.\r\n    Animal[] animals;\r\n\r\n\r\n   /* struct crop{\r\n        uint256 id;\r\n        string name;\r\n\r\n    }*/\r\n\r\n  //  mapping(uint256 => crop) crops;\r\n\r\n    function mint(uint caravana, string memory breed, uint weight, uint dateOfBirth, bool male) internal{\r\n        require(!animalsCaravana[caravana].exists, \"Another animal with that caravana still exists.\");\r\n\r\n        myEvent[] memory events;\r\n        Animal memory _animal = Animal(caravana, breed, weight, dateOfBirth, male, true, events, animals.length+1);\r\n        animalsCaravana[caravana]= _animal;\r\n\r\n        //Token id = length de animals al momento de generar un nuevo animal.\r\n        uint _id= animals.push(_animal);\r\n        _mint (msg.sender, _id);\r\n    }\r\n\r\n    function updateAnimalWeight (uint caravana, uint newWeight) public payable{\r\n        require(animalsCaravana[caravana].exists, \"That animal does not exist.\");\r\n        address owner = ownerOf(animalsCaravana[caravana].tokenID);\r\n        require(msg.sender == owner || isApprovedForAll(owner, msg.sender),\r\n            \"ERC721: approve caller is not owner nor approved.\"\r\n        );\r\n\r\n        string memory str1= uint2str(caravana);\r\n        string memory str2= concat(str1,\"weight changed from\");\r\n        string memory str3= concat(str2,uint2str(animalsCaravana[caravana].weight));\r\n        string memory str4= concat(str3, \"kg to\");\r\n        string memory str5= concat(str4, uint2str(newWeight));\r\n        string memory text= concat(str5, \"kg.\");\r\n\r\n        animalsCaravana[caravana].events.push(myEvent(text, now));\r\n        animalsCaravana[caravana].weight=newWeight;\r\n\r\n        //this.weight = newWeight;\r\n/*\r\n        crear animal en el id 1000\r\n        animals[1000].id = 1000;\r\n        animals[1000].name = 'pepito';\r\n        animals[1000].weight = 500\r\n        */\r\n    }\r\n\r\n    function slaughter(uint caravana) public payable{\r\n        require(animalsCaravana[caravana].exists, \"That animal does not exist.\");\r\n        address owner = ownerOf(animalsCaravana[caravana].tokenID);\r\n        require(msg.sender == owner || isApprovedForAll(owner, msg.sender),\r\n            \"ERC721: approve caller is not owner nor approved.\"\r\n        );\r\n        string memory str1= uint2str(caravana);\r\n        string memory str2= concat( \"Animal\", str1);\r\n        string memory text= concat(str2, \"has been slaughtered or has died.\");\r\n        animalsCaravana[caravana].events.push(myEvent(text, now));\r\n        animalsCaravana[caravana].exists=false;\r\n    }\r\n\r\n\r\n    function uint2str(uint i) internal pure returns (string memory) {\r\n        if (i == 0) return \"0\";\r\n        uint j = i;\r\n        uint length;\r\n        while (j != 0) {\r\n            length++;\r\n            j /= 10;\r\n        }\r\n        bytes memory bstr = new bytes(length);\r\n        uint k = length - 1;\r\n        while (i != 0) {\r\n            bstr[k--] = byte(uint8(48 + i % 10));\r\n            i /= 10;\r\n        }\r\n        return string(bstr);\r\n    }\r\n\r\n    function concat(string memory a, string memory b) internal pure returns (string memory ) {\r\n\r\n        return string(abi.encodePacked(a, b));\r\n\r\n    }\r\n}\r\n\r\n\r\n\r\n// el unico momento en el que se puede actualizar un struct es cuando se hace una transaccion?\r\n//Podes tener en un contrato definidos mas de un tipo de struct?\r\n//Como sincronizamos con metamask las addresses?\r\n//podria tener mas de un struct adentro de otro\r\n\r\n//Esta bien que cada struct se mapee de acuerdo a un int y no un address, por ERC721\r\n//Deberiamos tener dentro de cada vaca o crop un array de struct \"evento\", donde se vayan\r\n    //guardando todas los eventos que le van pasando a la vaca.\r\n    //Supongo que en cada evento podrias modificar cualquiera de los atributos, peso, granja, etc.\r\n    //No estoy seguro desde donde se llaman las funciones\r\n    //metamask no creo que nos de el tiempo de meternos a hacer eso, es mas para frontend",
  "sourcePath": "E:/Documents/UM/Blockchain/Blockchain/contracts/AnimalToken.sol",
  "compiler": {
    "name": "solc",
    "version": "0.5.17+commit.d19bba13.Emscripten.clang"
  },
  "schemaVersion": "3.3.2",
  "updatedAt": "2020-11-19T22:33:23.504Z",
  "devdoc": {
    "methods": {
      "approve(address,uint256)": {
        "details": "Approves another address to transfer the given token ID The zero address indicates there is no approved address. There can only be one approved address per token at a given time. Can only be called by the token owner or an approved operator.",
        "params": {
          "to": "address to be approved for the given token ID",
          "tokenId": "uint256 ID of the token to be approved"
        }
      },
      "balanceOf(address)": {
        "details": "Gets the balance of the specified address.",
        "params": {
          "owner": "address to query the balance of"
        },
        "return": "uint256 representing the amount owned by the passed address"
      },
      "getApproved(uint256)": {
        "details": "Gets the approved address for a token ID, or zero if no address set Reverts if the token ID does not exist.",
        "params": {
          "tokenId": "uint256 ID of the token to query the approval of"
        },
        "return": "address currently approved for the given token ID"
      },
      "isApprovedForAll(address,address)": {
        "details": "Tells whether an operator is approved by a given owner.",
        "params": {
          "operator": "operator address which you want to query the approval of",
          "owner": "owner address which you want to query the approval of"
        },
        "return": "bool whether the given operator is approved by the given owner"
      },
      "mint(address,uint256)": {
        "details": "Function to mint tokens.",
        "params": {
          "to": "The address that will receive the minted tokens.",
          "tokenId": "The token id to mint."
        },
        "return": "A boolean that indicates if the operation was successful."
      },
      "name()": {
        "details": "Gets the token name.",
        "return": "string representing the token name"
      },
      "ownerOf(uint256)": {
        "details": "Gets the owner of the specified token ID.",
        "params": {
          "tokenId": "uint256 ID of the token to query the owner of"
        },
        "return": "address currently marked as the owner of the given token ID"
      },
      "safeTransferFrom(address,address,uint256)": {
        "details": "Safely transfers the ownership of a given token ID to another address If the target address is a contract, it must implement `onERC721Received`, which is called upon a safe transfer, and return the magic value `bytes4(keccak256(\"onERC721Received(address,address,uint256,bytes)\"))`; otherwise, the transfer is reverted. Requires the msg.sender to be the owner, approved, or operator",
        "params": {
          "from": "current owner of the token",
          "to": "address to receive the ownership of the given token ID",
          "tokenId": "uint256 ID of the token to be transferred"
        }
      },
      "safeTransferFrom(address,address,uint256,bytes)": {
        "details": "Safely transfers the ownership of a given token ID to another address If the target address is a contract, it must implement `onERC721Received`, which is called upon a safe transfer, and return the magic value `bytes4(keccak256(\"onERC721Received(address,address,uint256,bytes)\"))`; otherwise, the transfer is reverted. Requires the msg.sender to be the owner, approved, or operator",
        "params": {
          "_data": "bytes data to send along with a safe transfer check",
          "from": "current owner of the token",
          "to": "address to receive the ownership of the given token ID",
          "tokenId": "uint256 ID of the token to be transferred"
        }
      },
      "setApprovalForAll(address,bool)": {
        "details": "Sets or unsets the approval of a given operator An operator is allowed to transfer all tokens of the sender on their behalf.",
        "params": {
          "approved": "representing the status of the approval to be set",
          "to": "operator address to set the approval"
        }
      },
      "supportsInterface(bytes4)": {
        "details": "See `IERC165.supportsInterface`.     * Time complexity O(1), guaranteed to always use less than 30 000 gas."
      },
      "symbol()": {
        "details": "Gets the token symbol.",
        "return": "string representing the token symbol"
      },
      "tokenByIndex(uint256)": {
        "details": "Gets the token ID at a given index of all the tokens in this contract Reverts if the index is greater or equal to the total number of tokens.",
        "params": {
          "index": "uint256 representing the index to be accessed of the tokens list"
        },
        "return": "uint256 token ID at the given index of the tokens list"
      },
      "tokenOfOwnerByIndex(address,uint256)": {
        "details": "Gets the token ID at a given index of the tokens list of the requested owner.",
        "params": {
          "index": "uint256 representing the index to be accessed of the requested tokens list",
          "owner": "address owning the tokens list to be accessed"
        },
        "return": "uint256 token ID at the given index of the tokens list owned by the requested address"
      },
      "tokenURI(uint256)": {
        "details": "Returns an URI for a given token ID. Throws if the token ID does not exist. May return an empty string.",
        "params": {
          "tokenId": "uint256 ID of the token to query"
        }
      },
      "totalSupply()": {
        "details": "Gets the total amount of tokens stored by the contract.",
        "return": "uint256 representing the total amount of tokens"
      },
      "transferFrom(address,address,uint256)": {
        "details": "Transfers the ownership of a given token ID to another address. Usage of this method is discouraged, use `safeTransferFrom` whenever possible. Requires the msg.sender to be the owner, approved, or operator.",
        "params": {
          "from": "current owner of the token",
          "to": "address to receive the ownership of the given token ID",
          "tokenId": "uint256 ID of the token to be transferred"
        }
      }
    }
  },
  "userdoc": {
    "methods": {}
  }
}